:100000000C9477230C94A4230C94A4230C94A42381
:100010000C94A4230C94A4230C94A4230C94A42344
:100020000C94A4230C94A4230C94A4230C94A42334
:100030000C94A4230D947A140C94A4230C94A4235C
:100040000C94A4230C9475720C94A4230C94A423F4
:100050000C94A4230C94AE6F0C94B1710D94D20F38
:100060000C94A4230C9402700C942C700C94A42374
:100070000C94A4230C94A4230C94A4230C94A423E4
:100080000C94A4230C94A4230C94A4230C94A423D4
:100090000C94A4230C94A4230C94A4230C94A423C4
:1000A0000C94A4230C94A4230C94A4230C94A423B4
:1000B0000C94A4230C94A4230C94A4230C94A423A4
:1000C0000C94A4230C94A4230C94A4230C94A42394
:1000D0000C94A4230C94A4230C94A4230C94A42384
:1000E0000C94A423C0E660E7FEE762E942F942F916
:1000F00042F942F942F942F942F942F942F99DE8DE
:10010000DEE81FE942F942F942F942F942F942F9BF
:1001100042F942F942F942F942F921EC82ECE3EC6E
:1001200044EDA5ED06EE67EE42F9FCF2EBEE63EF6F
:10013000DBEF53F0CBF043F1B8F124F290F242F947
:1001400042F942F942F942F9F2EA57EB42F952F325
:10015000D1F34DF4CCF4FAF456F593F5D0F53BF623
:10016000AAF617F784F7B6F728F566F842F942F9C8
:1001700042F942F942F942F942F942F942F942F9A7
:1001800042F942F9BFEA42F942F942F942F942F929
:1001900042F942F942F9D5F842F919EB42F942F92C
:1001A00042F9EFF72DF842F942F942F942F9B2E685
:1001B00042F942F9A4E952EA9FEABCEB084AD73B6C
:1001C0003BCE016E84BCBFFDC12F3D6C74319ABD26
:1001D00056833DDA3D00C77F11BED9E4BB4C3E914A
:1001E0006BAAAABE000000803F05A84CCDB2D44E39
:1001F000B93836A9020C50B9918688083CA6AAAA3B
:100200002ABE000000803F000001001100100030F5
:10021000002500240036002F00370023002200397B
:100220000038003E00210020000D002D00020009D2
:100230000007001700160018000F000B00350053D0
:100240006574204D6963726F7374657070696E6751
:100250000048656174696E672045787472756465DD
:1002600072004649524D574152455F4E414D453A05
:1002700052657065746965725F302E393120464968
:10028000524D574152455F55524C3A6874747073E1
:100290003A2F2F6769746875622E636F6D2F7265D0
:1002A0007065746965722F52657065746965722D29
:1002B0004669726D776172652F2050524F544F43DB
:1002C0004F4C5F56455253494F4E3A312E30204DD8
:1002D000414348494E455F545950453A44656C7412
:1002E000612045585452554445525F434F554E5432
:1002F0003A312052455045544945525F50524F546F
:100300004F434F4C3A320044656275673A006F6B59
:10031000000D0A004E414E00494E46004572726F74
:10032000723A00496E666F3A005761726E696E6785
:100330003A00526573656E643A004563686F3A002F
:100340006F6B200057726F6E6720636865636B7315
:10035000756D004D697373696E6720636865636BC3
:1003600073756D00466F726D6174206572726F7285
:1003700000446F6E65207072696E74696E672066E6
:10038000696C6500205800205900205A0020450063
:10039000204600205300205000204900204A002021
:1003A000520053442072656164206572726F72005E
:1003B0004572726F723A6578706563746564206C1B
:1003C000696E65200020676F742000736B69702070
:1003D00000424C4B2000737461727400506F77655B
:1003E0007255700045787465726E616C2052657349
:1003F00065740042726F776E206F7574205265735A
:100400006574005761746368646F67205265736533
:100410007400536F667477617265205265736574FA
:1004200000556E6B6E6F776E20636F6D6D616E64DD
:100430003A00467265652052414D3A00583A002014
:10044000583A0020593A00205A3A0020453A0054C0
:100450003A0020423A0020403A0020540020400058
:100460002042403A0020524157003A002F00202FEE
:100470000053706565644D756C7469706C793A00F1
:10048000466C6F774D756C7469706C793A00466193
:100490006E73706565643A005072696E74656420AD
:1004A00066696C616D656E743A005072696E74694C
:1004B0006E672074696D653A006D20002064617973
:1004C00073200020686F7572732000206D696E00C4
:1004D000496E76616C696420617263002C002000B3
:1004E000593A005A3A0045303A0045313A004D53E6
:1004F000312C4D53322050696E7300536574206F58
:100500007574707574200020746F20004820004CB2
:100510002000785F6D696E3A00785F6D61783A000F
:10052000795F6D696E3A00795F6D61783A007A5F44
:100530006D696E3A007A5F6D61783A004A65726B58
:100540003A00205A4A65726B3A00206C696E656108
:10055000722073746570733A002071756164726102
:100560007469632073746570733A002C207370652E
:1005700065643D00454550524F4D2075706461746F
:100580006564006C696E656172204C3A002071757B
:1005900061647261746963204B3A004D65617375E3
:1005A00072656D656E742072657365742E004D659D
:1005B00061737572652F64656C746120285374656E
:1005C000707329203D004D6561737572652F6465F8
:1005D0006C7461203D004D65617375726564206FB8
:1005E000726967696E207365742E204D656173753D
:1005F00072656D656E742072657365742E004F723E
:100600006967696E206D6561737572656D656E747D
:100610002063616E6E6F74206265207365742E2096
:1006200020557365206F6E6C79205A2D436172746A
:10063000657369616E2028737472616967687420DC
:10064000757020616E6420646F776E29206D6F76FF
:10065000656D656E747320616E64207472792061BB
:100660006761696E2E00496E76616C69642064650D
:100670006C746120636F6F7264696E617465202DA4
:10068000206D6F76652069676E6F726564004C65DA
:1006900076656C696E672063616C633A00546F77AE
:1006A000657220313A00546F77657220323A0054F7
:1006B0006F77657220333A00416C70686120412881
:1006C000323130293A00416C70686120422833335E
:1006D00030293A00416C7068612043283930293A4A
:1006E0000044656C7461205261646975732041280F
:1006F00030293A0044656C746120526164697573F5
:1007000020422830293A0044656C746120526164AB
:1007100069757320432830293A004E6F206D6F763B
:100720006520696E2064656C7461207365676D6512
:100730006E742077697468203E2031207365676D80
:10074000656E742E20546869732073686F756C64CD
:10075000206E657665722068617070656E20616ECE
:1007600064206D617920636175736520612070720A
:100770006F626C656D2100546172676574457874B1
:1007800072005461726765744265643A005049446E
:10079000204175746F74756E652073746172740096
:1007A00020626961733A200020643A2000206D695C
:1007B0006E3A2000206D61783A2000204B753A2077
:1007C000002054753A200020436C617373696320E4
:1007D00050494400204B703A2000204B693A2000D9
:1007E000204B643A2000504944204175746F747561
:1007F0006E65206661696C6564212054656D706565
:1008000072617475726520746F2068696768005042
:100810004944204175746F74756E65206661696C1A
:100820006564212074696D656F75740050494420BA
:100830004175746F74756E652066696E697368655D
:1008400064202120506C61636520746865204B70C2
:100850002C204B6920616E64204B6420636F6E73A3
:1008600074616E747320696E2074686520436F6EC6
:1008700066696775726174696F6E2E68206F722089
:10088000454550524F4D004D54454D503A00686516
:10089000617465642062656400657874727564656E
:1008A0007220003A2074656D702073656E736F72EC
:1008B00020646566656374003A20776F726B696EB9
:1008C00067005072696E7465722073657420696E7A
:1008D000746F206472792072756E206D6F6465206C
:1008E000756E74696C207265737461727421005A3C
:1008F0002D70726F62653A005A2D70726F626520BA
:1009000061766572616765206865696768743A0039
:100910005265736574205A20686569676874005A67
:100920002D70726F62652073746174653A00000007
:10093000486974207A2D70726F6265004175746F1A
:100940006C6576656C206D61747269782072657370
:100950006574004175746F6C6576656C696E6720AF
:10096000656E61626C6564004175746F6C65766577
:100970006C696E672064697361626C6564005A2DEE
:1009800070726F6265206661696C6564005A2D70D3
:10099000726F6265206D61783A005072696E74659D
:1009A00072206865696768743A0077616974005AF3
:1009B0002D70726F626520686569676874205B6D71
:1009C0006D5D004D61782E207A2D70726F6265200A
:1009D0002D2062656420646973742E205B6D6D5DEB
:1009E000005A2D70726F6265206F666673657420A1
:1009F00078205B6D6D5D005A2D70726F6265206F9F
:100A000066667365742079205B6D6D5D005A2D708C
:100A1000726F6265207370656564205B6D6D2F7306
:100A20005D005A2D70726F626520782D792D73707C
:100A3000656564205B6D6D2F735D005A2D70726F5C
:100A40006265205831005A2D70726F6265205931ED
:100A5000005A2D70726F6265205832005A2D7072E4
:100A60006F6265205932005A2D70726F626520588E
:100A700033005A2D70726F626520593300417574CE
:100A80006F6C6576656C20616374697665202831CA
:100A90002F302900436F6E66696775726174696FE4
:100AA0006E2073746F72656420746F2045455052D8
:100AB0004F4D2E00436F6E66696775726174696F82
:100AC0006E206C6F616465642066726F6D204545B1
:100AD00050524F4D2E00436F6E6669677572617498
:100AE000696F6E20726573657420746F206465662B
:100AF00061756C74732E0050726F746F636F6C202D
:100B000076657273696F6E206368616E6765642CC9
:100B100020757067726164696E6700457874722E23
:100B2000004550523A3020004550523A312000459D
:100B300050523A3220004550523A332000426175FB
:100B400064726174650046696C616D656E742070D5
:100B500072696E746564205B6D5D005072696E74BD
:100B6000657220616374697665205B735D004D6119
:100B7000782E20696E6163746976652074696D658D
:100B8000205B6D732C303D6F66665D0053746F7033
:100B90002073746570706572206166746572206977
:100BA0006E6163746976697479205B6D732C303D76
:100BB0006F66665D005820686F6D6520706F7320EA
:100BC0005B6D6D5D005920686F6D6520706F7320DF
:100BD0005B6D6D5D005A20686F6D6520706F7320CE
:100BE0005B6D6D5D0058206D6178206C656E67747B
:100BF00068205B6D6D5D0059206D6178206C656EBD
:100C0000677468205B6D6D5D005A206D6178206CA3
:100C1000656E677468205B6D6D5D0058206261636E
:100C20006B6C617368205B6D6D5D00592062616360
:100C30006B6C617368205B6D6D5D005A206261634F
:100C40006B6C617368205B6D6D5D004D61782E206B
:100C50006A65726B205B6D6D2F735D004163636528
:100C60006C65726174696F6E205B6D6D2F735E329F
:100C70005D0054726176656C20616363656C6572BA
:100C80006174696F6E205B6D6D2F735E325D005312
:100C90007465707320706572206D6D004D61782EE3
:100CA000206665656472617465205B6D6D2F735D90
:100CB00000486F6D696E6720666565647261746572
:100CC000205B6D6D2F735D00446961676F6E616CB1
:100CD00020726F64206C656E677468205B6D6D5D5B
:100CE00000486F72697A6F6E74616C20726164691A
:100CF0007573205B6D6D5D005365676D656E747314
:100D00002F7320666F72207072696E74696E67004F
:100D10005365676D656E74732F7320666F722074F0
:100D2000726176656C00546F776572205820656E2D
:100D30006473746F70206F6666736574205B737480
:100D40006570735D00546F776572205920656E641D
:100D500073746F70206F6666736574205B7374655F
:100D600070735D00546F776572205A20656E6473EE
:100D7000746F70206F6666736574205B7374657042
:100D8000735D004D61782E20726164697573205B1C
:100D90006D6D5D00436F72722E20646961676F6EC6
:100DA000616C2041205B6D6D5D00436F72722E207F
:100DB000646961676F6E616C2042205B6D6D5D00E0
:100DC000436F72722E20646961676F6E616C20439D
:100DD000205B6D6D5D004F5053206F7065726174C4
:100DE000696F6E206D6F6465205B303D4F66662CC9
:100DF000313D436C61737369632C323D466173749A
:100E00005D004F5053206D6F76652061667465728A
:100E10002078252072657472616374205B255D0003
:100E20004F5053206D696E2E2064697374616E6338
:100E30006520666F722066696C2E2072657472611F
:100E40006374696F6E205B6D6D5D004F505320724F
:100E5000657472616374696F6E206C656E67746827
:100E6000205B6D6D5D004F5053207265747261633D
:100E700074696F6E206261636B6C617368205B6D77
:100E80006D5D004265642048656174204D616E614E
:100E9000676572205B302D335D00426564205049E8
:100EA00044206472697665206D6178004265642033
:100EB000504944206472697665206D696E00426510
:100EC000642050494420502D6761696E004265647A
:100ED0002050494420492D6761696E0042656420B5
:100EE00050494420442D6761696E0042656420507A
:100EF0004944206D61782076616C7565205B302DEA
:100F00003235355D00737465707320706572206DC5
:100F10006D006D61782E2066656564726174652070
:100F20005B6D6D2F735D007374617274206665650F
:100F30006472617465205B6D6D2F735D0061636326
:100F4000656C65726174696F6E205B6D6D2F735E89
:100F5000325D0068656174206D616E616765722045
:100F60005B302D335D005049442064726976652002
:100F70006D617800504944206472697665206D691E
:100F80006E0050494420502D6761696E2F64656181
:100F9000642D74696D650050494420492D6761696D
:100FA0006E0050494420442D6761696E00504944E9
:100FB000206D61782076616C7565205B302D32354F
:100FC000355D00582D6F6666736574205B737465BC
:100FD00070735D00592D6F6666736574205B737462
:100FE0006570735D0074656D702E20737461626945
:100FF0006C697A652074696D65205B735D0074654A
:101000006D702E20666F72207265747261637469F0
:101010006F6E207768656E2068656174696E672001
:101020005B435D0064697374616E636520746F2057
:1010300072657472616374207768656E206865619B
:1010400074696E67205B6D6D5D00657874727564A0
:10105000657220636F6F6C657220737065656420C4
:101060005B302D3235355D00616476616E636520DD
:101070004B205B303D6F66665D00616476616E6338
:1010800065204C205B303D6F66665D005344204315
:101090006172642072656D6F76656400534420430D
:1010A00061726420696E73657274656400534420D4
:1010B000696E6974206661696C006572726F722076
:1010C00077726974696E6720746F2066696C650059
:1010D000426567696E2066696C65206C697374008F
:1010E000456E642066696C65206C6973740046699E
:1010F0006C65206F70656E65643A002053697A658F
:101100003A0046696C652073656C656374656400BC
:1011100066696C652E6F70656E206661696C6564CA
:10112000005344207072696E74696E67206279742E
:101130006520004E6F74205344207072696E74698C
:101140006E67006F70656E206661696C65642C2047
:1011500046696C653A200057726974696E6720743D
:101160006F2066696C653A2000446F6E652073617C
:1011700076696E672066696C652E0046696C65202D
:1011800064656C657465640044656C6574696F6E54
:10119000206661696C6564004469726563746F728E
:1011A0007920637265617465640043726561746976
:1011B0006F6E206661696C656400534420657272CD
:1011C0006F72436F64653A000F1C151C141C1100EC
:1011D0002243141F1F1F128F12E3125313A3131362
:1011E0001400005714DF14EB153B16B716473120D7
:1011F00045313020463630303000473930202F6EB0
:10120000204731205A35202F6E20473931202F6E4C
:1012100020473120452D3130204636303030000017
:1012200000A00F5C006009690010097900C0088CFB
:10123000007008A2002008BD00D007DE008007056E
:101240000130073401E0066D019006B20140060747
:1012500002F0056D02A005E80250057B0300052B96
:1012600004B004F8046004EB06C003350920037FD2
:101270000B8002650DE001B00E40011D0FF000482B
:101280000FC8006C0FA000ED0F60FFFE0F48FE04BA
:1012900000801AD8009808AC01200780025006543C
:1012A00003C80528045805FC040005D005B004A4B3
:1012B000066804780728044C08E8032009B003F402
:1012C000097003C80A38039C0BF802700CB0024482
:1012D0000D6802180E0802EC0E8801C00F8800F09D
:1012E0000F00000400001B54006009640010097422
:1012F00000C008840070089C002008B800D007D8FF
:10130000008007000130072C01E00668019006AC60
:101310000140060002F0056802A005E002500574D5
:101320000300052404B004F0046004DC051004E4A8
:1013300006C0030408700330092003780B800260A4
:101340000DE001A80E4001680FA000C00F0000E8EA
:101350000F60FF0400700DD8004804AC01580380F2
:1013600002D8025403800228043802FC040002D090
:1013700005C801A4069801780770014C08480120AF
:10138000091801F409F000C80AC8009C0BA00070FD
:101390000C7000440D3800180E0000EC0EA8FFC0C1
:1013A0000FE8FEA302A00562006009F104600409D1
:1013B000035005D200D007FE0080079D007008375B
:1013C00002F0058E019006D20140064401E0061F9E
:1013D000013007BA0020088300C0086C0010097FA4
:1013E0000B8002D60510046E04B004AC0300052780
:1013F00007C00300087003490920032B0AD00288A4
:101400000C3002600DE0011A0E9001AC0E40010795
:101410000F0001A700A0050500D007F60050051336
:10142000021004080030070900E0060D00400655D0
:1014300000F005060080070A0090068A01B004DF6C
:101440000370033B06D002490930025D0C9001A0F5
:101450000D4001070FF0000000401F450060094FDC
:101460000010095C00C0086B0070087D0020089225
:1014700000D007AC008007CC003007DE00E0062378
:101480000190065E014006A601F005FF01A0056D72
:10149000025005F30200059603B0045A04600440AC
:1014A0000510044806C0036E077003A8082003EB6C
:1014B00009D002230B8002410C3002390DE00104F7
:1014C0000E9001A20E4001170FF000690FA000A2BC
:1014D0000F5000C60F0000DD0FB0FFEB0F60FF04E0
:1014E00000681D4C00500B94005809DC0050082483
:1014F00001A8076C012807B401C006FC017006446E
:101500000228068C02F005D402B8051C0388056485
:10151000035805AC033005F40310053C04E80484CB
:1015200004C804CC04A804140590045C057004A449
:10153000055804EC053804340620047C060804C46D
:1015400006F0030C07D8035407C8039C07B003E454
:101550000798032C08800374087003BC0858030420
:101560000948034C09300394091803DC09080324D3
:101570000AF0026C0AE002B40AC802FC0AB0024493
:101580000BA0028C0B8802D40B70021C0C58026456
:101590000C4002AC0C2802F40C10023C0DF001844B
:1015A0000DD801CC0DB801140E98015C0E7001A489
:1015B0000E4801EC0E1801340FD8007C0F8800C4CF
:1015C0000F0800FC0F0000000000000000000000F9
:1015D000000000000000000000000000000000000B
:1015E000000000000000000000000004000016D809
:1015F00000C006AC0178058002C0045403480428EA
:1016000004E803FC049803D0055003A406180378EB
:1016100007D8024C08A80220097002F4093802C851
:101620000A08029C0BD001700C9001440D50011867
:101630000EF800EC0E8800C00F00000400401D9062
:101640000060091C01B007A801D00634023806C0AA
:1016500002C8054C036805D80318056404D804F0D3
:101660000498047C056004080630049406000420F5
:1016700007D003AC07A80338088003C408580350F8
:10168000093003DC090803680AE002F40AB80280A2
:101690000B88020C0C6002980C3002240DF801B08B
:1016A0000DC0013C0E8001C80E3001540FB800B4CB
:1016B0000F2800E00F00000400081D900058091CCE
:1016C00001B007A801C80634023006C002C0054CAC
:1016D000036805D80318056404D004F00498047C5A
:1016E00005600408063004940600042007D003AC0B
:1016F00007A80338088003C408580350093003DCE6
:10170000090803680AD802F40AB002800B88020CA8
:101710000C6002980C3002240DF801B00DC0013CA1
:101720000E8001C80E3001540FB800B40F2800E03D
:101730000F00005344206572726F722066697865ED
:1017400064005344206572726F7220646964206E75
:101750006F74207265636F76657221005344205266
:10176000656164204572726F720042696E617279C0
:101770003A00436F6D6D616E644275666665720016
:101780000000000000000000000000000000000059
:1017900024F403D950C38EB1C2A23D96828B358208
:1017A000127AE372816CCB66A861015DC758EB5475
:1017B0006151204E1E4B5648C14559431A41013FC5
:1017C000093D2F3B7139CD374036C934653314326A
:1017D000D430A32F802E6B2D632C672B752A8E2976
:1017E000B028DC2710274B268F25D9242B248223D1
:1017F000E0224322AC211A218D200420801F001FEB
:10180000841E0C1E971D261DB81C4E1CE61B821B39
:10181000201BC11A641A0A1AB2195D190A19B918DB
:101820006A181C18D11788174017FA16B5167316C0
:101830003116F115B31576153A150015C7148F1426
:1018400058142214EE13BA13881356132513F612E4
:10185000C71299126C1240121512EB11C111981196
:10186000701148112111FB10D610B1108D106910A4
:10187000461024100210E10FC00FA00F800F610F5F
:10188000420F230F060FE80ECB0EAF0E930E770E0E
:101890005C0E410E270E0D0EF30DDA0DC10DA80DD5
:1018A000900D780D600D490D320D1B0D050DEF0CDF
:1018B000D90CC30CAE0C990C850C700C5C0C480C4C
:1018C000350C210C0E0CFB0BE80BD60BC40BB20B2A
:1018D000A00B8E0B7D0B6B0B5A0B4A0B390B290B94
:1018E000180B080BF80AE90AD90ACA0ABB0AAC0A9B
:1018F0009D0A8E0A800A710A630A550A470A390A44
:101900002C0A1E0A110A040AF709EA09DD09D0099E
:10191000C409B709AB099F09920987097B096F09B7
:10192000630958094C09410936092B092009150991
:101930000A090009F508EB08E008D608CC08C20837
:10194000B808AE08A4089A08900887087D087408AB
:101950006B08610858084F0846083D0834082C08F1
:1019600023081A08120809080108F807F007E80711
:10197000E007D807D007C807C007B807B007A8070F
:10198000A1070000420FA1071605D0030D038B022B
:101990002E02E801B2018601630145012C01170105
:1019A0000401F40049646C650049646C6500496495
:1019B0006C6500486F6D652044656C7461005374FC
:1019C00065707065722044697361626C6564004B78
:1019D000696C6C65640055706C6F6164696E672E2C
:1019E0002E2E005344207072696E742073746F70D1
:1019F00070656420627920757365722E00534420EF
:101A00006361726420696E73657274656400534427
:101A1000204361726420696E73657274656400535B
:101A20004420436172642072656D6F766564005373
:101A30004420636172642072656D6F766564000096
:101A4000002110422063308440A550C660E7700832
:101A50008129914AA16BB18CC1ADD1CEE1EFF131B9
:101A600012100273325222B5529442F772D6623982
:101A70009318837BB35AA3BDD39CC3FFF3DEE36209
:101A800024433420040114E664C774A44485546AD2
:101A9000A54BB528850995EEE5CFF5ACC58DD55399
:101AA00036722611163006D776F6669556B4465B22
:101AB000B77AA719973887DFF7FEE79DD7BCC7C469
:101AC00048E5588668A7784008611802282338CC72
:101AD000C9EDD98EE9AFF9488969990AA92BB9F5F9
:101AE0005AD44AB77A966A711A500A333A122AFDC2
:101AF000DBDCCBBFFB9EEB799B588B3BBB1AABA6C9
:101B00006C877CE44CC55C222C033C600C411CAE11
:101B1000ED8FFDECCDCDDD2AAD0BBD688D499D97D8
:101B20007EB66ED55EF44E133E322E511E700E9F61
:101B3000FFBEEFDDDFFCCF1BBF3AAF599F788F8828
:101B400091A981CAB1EBA10CD12DC14EF16FE180F9
:101B500010A100C230E3200450254046706760B9F0
:101B6000839893FBA3DAB33DC31CD37FE35EF3B149
:101B7000029012F322D2323542145277625672EA40
:101B8000B5CBA5A89589856EF54FE52CD50DC5E299
:101B900034C324A01481046674476424540544DBD0
:101BA000A7FAB79987B8975FE77EF71DC73CD7D3E9
:101BB00026F2369106B01657667676154634564CA0
:101BC000D96DC90EF92FE9C899E9898AB9ABA94439
:101BD00058654806782768C018E1088238A3287D30
:101BE000CB5CDB3FEB1EFBF98BD89BBBAB9ABB7589
:101BF0004A545A376A167AF10AD01AB32A923A2E00
:101C0000FD0FED6CDD4DCDAABD8BADE89DC98D26D8
:101C10007C076C645C454CA23C832CE01CC10C1F0F
:101C2000EF3EFF5DCF7CDF9BAFBABFD98FF89F1728
:101C30006E367E554E745E932EB23ED10EF01E7CF3
:101C40003C3E5E2B3D3F2F5B5D3B2C2A225C004ED1
:101C50006F206572726F7220666F756E642E00431E
:101C6000616E2774206F70656E20726F6F742064D0
:101C700069726563746F72792E00496E76616C6962
:101C80006420666F726D61742C207265666F726D70
:101C900061742053442E004E6F20636172642C20C7
:101CA00077726F6E6720636869702073656C656317
:101CB000742070696E2C206F72205350492070720E
:101CC0006F626C656D3F0043616E277420616363D2
:101CD00065737320534420636172642E20446F2027
:101CE0006E6F74207265666F726D61742E000106EE
:101CF0000C00FE030229036300FF000AFE08000235
:101D00005767A80088008800A8025767F088E8A8ED
:101D1000E888F002576770A8F8A8F8A8700257671B
:101D200070880808088870124565609010906001FE
:101D300058687088808088780808025767202020BB
:101D400020A87020026767F8FCFC9CFCFCF8025796
:101D50006770F8F8A8F8F870FFFFFFFFFFFFFF03B8
:101D600055652040F840200257672070A8202020A9
:101D7000200355652010F8102002576720202020EE
:101D8000A8702004536350F8500257672070A820B1
:101D9000A87020025969C0F0E0A0201010080802C5
:101DA000596918783828204040808002596980801D
:101DB000404020283878180259690808101020A0DF
:101DC000E0F0C00365652848FC50300365653028A5
:101DD000FC4850046363C0D8640463630C6C9803CC
:101DE00065652850FC50280258682070A870A8200B
:101DF00020200365655028FC2850025868202020C8
:101E0000A870A870200365652448F0482403656520
:101E100090483C48900355652848F8482802576781
:101E20002070A8202020F8035565A090F890A0020B
:101E30005767F8202020A870200257672070A8203C
:101E4000A870F80365652844F8402003656550884C
:101E50007C0810036565204CFC482803656510C8A4
:101E6000FC485003646448DCEC480365650858FC92
:101E700068400257678090B0D090381002586820B0
:101E800040F848280808080258682010F890A080F8
:101E900080800258680808082848F84020025767E0
:101EA0008080A090F81020035464F010381003557F
:101EB00065080848F840035565304848E848035528
:101EC00065609090B810025868F880E0C0A02010BB
:101ED00010025969A0C0F8C0A818F8182802566660
:101EE0003830A8888870025666E060A88888700537
:101EF00053632040F8035363F8402022386880C0C1
:101F0000A080808080800238682060A0202020206F
:101F1000200553632010F8035363F810202238681B
:101F20008080808080A0C08002386820202020200F
:101F3000A060200259692010F8102040F8402002CB
:101F4000586850F05050505078500259692040F86D
:101F5000402010F810200259692040F8402040F835
:101F6000402002586850F850505050505002596963
:101F70002010F8102010F8102002586850505050CF
:101F80005050F8500257672040F800F810200257D0
:101F9000672010F800F8402002676714287C907CC6
:101FA00020500267670858FCA4FC6840026767A0DD
:101FB00050F824F8102803556520788078200257BF
:101FC000672050D85050505003556520F008F0203D
:101FD00002576750505050D8502003656548FC8424
:101FE000FC480258682050D85050D85020026666ED
:101FF000F8A0D0A894080266667C142C54A4400271
:10200000666640A4542C147C0266660894A8D0A08E
:10201000F8026767103C40FC403C1002676720F004
:1020200008FC08F02003646440E8D44003646408BA
:102030005CAC080258682070A820702070200258FC
:10204000682070207020A870200365652040D4406F
:102050002002586820708820002000200365651049
:1020600008AC081002586820002000208870200367
:102070005565A0C0F8C0A00355652818F8182803B6
:10208000556520788878200258682050D8505050E4
:10209000507003556520F088F02002586870505049
:1020A0005050D850200259692050D85070007050BC
:1020B000700259692050D8505050D888F802596998
:1020C0002050F8885050D888F80259692070F8706C
:1020D0007070F8A8F80259692050D850D850505064
:1020E000700259692050D850D850D888F8035565E7
:1020F000A0F088F0A0025868F880B0A090100808FE
:1021000002586880804048286808F80258682050C3
:10211000D85050D850200365651068FC68100258EC
:1021200068507850505050F05002596910F8101013
:10213000F81010F8100365652848FC482803656509
:102140005048FC48500365653078FC78300365657D
:102150003858FC58380365657068FC68700365651D
:102160003078FC78300355652060B86020035565F1
:102170002030E830200365653078B4783006666634
:10218000FCFCFCFCFCFC006262FCFC006363FCFCED
:10219000FC006565FCFCFCFCFC006666FCFCFCFCD1
:1021A000FCFC006868FCFCFCFCFCFCFCFC006969B5
:1021B000FCFCFCFCFCFCFCFCFC006B6BFCFCFCFC7D
:1021C000FCFCFCFCFCFCFC006C6CFCFCFCFCFCFC6B
:1021D000FCFCFCFCFCFC005C6CF8F8F8F8F8F8F887
:1021E000F8F8F8F8F8004C6CF0F0F0F0F0F0F0F0DF
:1021F000F0F0F0F0004C6CF0F0F0F0F0F0F0F0F0F7
:10220000F0F0F0003C6CE0E0E0E0E0E0E0E0E0E096
:10221000E0E0002C6CC0C0C0C0C0C0C0C0C0C0C026
:10222000C0002C6CC0C0C0C0C0C0C0C0C0C0C0C056
:10223000001C6C80808080808080808080808030E6
:102240003C6CE0E0E0E0E0E0E0E0E0E0E0E0016BFA
:102250006BA8005400A8005400A80054006C6CA89F
:1022600054A854A854A854A854A854006C6C54FC06
:10227000A8FC54FCA8FC54FCA8FC0A6262FCFC50BC
:102280001C6C808080808080808080808080003690
:1022900066E0E0E0E0E0E0303666E0E0E0E0E0E08C
:1022A000063666E0E0E0E0E0E0006C6CE0E0E0E0F4
:1022B000E0E0FCFCFCFCFCFC006C6CE0E0E0E0E03E
:1022C000E01C1C1C1C1C1C006C6CFCFCFCFCFCFCC6
:1022D000E0E0E0E0E0E0006C6CFCFCFCFCFCFC1CE2
:1022E0001C1C1C1C1C363666E0E0E0E0E0E0006CE4
:1022F0006C1C1C1C1C1C1CE0E0E0E0E0E0006C6CB2
:102300001C1C1C1C1C1CFCFCFCFCFCFC025565F889
:10231000F8F8F8F8025565F8888888F8025565706D
:1023200088888870025565F888A888F8025565F88D
:1023300088F888F8025565F8A8A8A8F8025565F845
:10234000A8F8A8F8025565F8C8A898F8025565F8E5
:1023500098A8C8F8025565F8D8A8D8F8143363E0EF
:10236000E0E0143363E0A0E0036565FCFCFCFCFCEA
:10237000036565FC848484FC114A6AF0F0F0F0F097
:10238000F0F0F0F0F0114A6AF090909090909090F8
:1023900090F00463633C78F00463633C48F00257B8
:1023A0006720207070F8F8F8025767202050508896
:1023B00088F803556520207070F80355652020507B
:1023C00050F812476780C0E0F0E0C0801247678095
:1023D000C0A090A0C08013356580C0E0C0801335D8
:1023E0006580C0A0C080036565C0F0FCF0C00365D7
:1023F00065C0B08CB0C0025767F8F8F87070202044
:10240000025767F8888850502020025565F8707090
:102410002020025565F85050202012476710307078
:10242000F070301012476710305090503010133554
:10243000652060E060201335652060A060200365A2
:10244000650C3CFC3C0C0365650C34C4340C035532
:10245000652070F870200355652050885020035582
:10246000652050A850200266663048B4B448300257
:102470005767205050885050200266663048848448
:10248000483002666620088004401002556570A836
:10249000A8A8700257677088A8D8A88870026666D6
:1024A0003078FCFC78300266663068E4E46830021C
:1024B000666630589C9C5830026666304884FC78CA
:1024C000300266663078FC84483002666630589C7C
:1024D0008448300266663068E484483012596908DE
:1024E000387878F87878380802596980E0F0F0F8A0
:1024F000F0F0E080006C6CFCFCFCFCCC8484CCFC38
:10250000FCFCFC006C6CFCFCFCCCB47878B4CCFC1F
:10251000FCFC066666FCFCFCCCB47800666678B40D
:10252000CCFCFCFC053363204080353363804020C5
:102530003233632040800233638040200563633080
:10254000488402636384483002556508183878F877
:1025500002556580C0E0F0F8025565F8F0E0C080F3
:10256000025565F8783818080255657088888870B3
:10257000025565F8E8E8E8F8025565F8B8B8B8F823
:10258000025565F8F8E8C8F8025565F898B8F8F803
:10259000025565F8A8A8A8F802576720205070A82F
:1025A00088F802576720207070E8E8F80257672023
:1025B000207070B8B8F80267673048848484483067
:1025C000025565F8A8E888F8025565F888E8A8F883
:1025D000025565F888B8A8F8025565F8A8B888F8D3
:1025E00002556570A8E888700255657088E8A87083
:1025F0000255657088B8A87002556570A8B88870D3
:10260000035565F890A0C080035565F84828180860
:1026100003556580C0A090F8144464F09090F013C6
:102620004464F0F0F0F0144464F09090F0144464CA
:10263000F0F0F0F003556508182848F80000FF0096
:10264000000000010100000000FF00004163746908
:102650006F6E3A256C61000310270200FE270310FD
:1026600027020002280100000100062802000006DF
:1026700000082803ED030400142803EE0304001CE3
:102680002803EF030400242803FA0304002C280382
:10269000FB030400342803FC0304003C2802000070
:1026A0000B00442802000005005A28020000060022
:1026B00064285265717565737450617573653A006D
:1026C0004E6F205344204361726400436F6F6C640B
:1026D0006F776E00507265686561742041425300E7
:1026E0005072656865617420504C4100802500007F
:1026F00040380000004B0000807000000096000091
:10270000C0DA000000E10000002C010008B2010066
:1027100000C2010000F401000084030090D0030017
:1027200000E803000008070020A1070000100E00C9
:1027300040420F0060E316000000000002000009A4
:10274000007028822889284F6E004F666600596500
:1027500073004E6F00030004004E2F4100003A004A
:102760002064617973200042492056322E350042A0
:10277000616E6742616E6700536C6F7742616E678E
:1027800000446561642054696D65005049440050FF
:1027900072696E74696E672E2E2E00206465662045
:1027A000000000003FCDCC4C3D0AD7A33B6F120385
:1027B0003A526570657469657220302E3931004275
:1027C0006F6F747320496E647573747269657300FA
:1027D00042492056322E35005072696E746572205F
:1027E00072656164792E00FFD0FFE0FFCFFF64FFC8
:1027F000D1FF32380C060201FF64FFD0FFFE9028A3
:1028000097289E28A528AC28AC28B328BA28C12828
:10281000C828CF28D628DD28E428EB28F228F92874
:10282000002907290E2915291C2923292A2931299C
:1028300038293F2946294D2954295B2962296929CC
:1028400070297729AC287E2985298C2993299A29F2
:10285000A129A829AF29B629BD29AC28C429CB298B
:10286000D229D929AC287E29E029E729EE29D229C5
:10287000AC28F529B328FC29032A0A2A112A182A88
:102880001F2A0000000600262A0000000400322A49
:102890003A2A0000000000482A0000000000592ADF
:1028A0000000000000672A0000000000782A03E80A
:1028B0000300007F2A03F50301028A2A03F60302BC
:1028C00004962A0354040200A12A03F7030400B06B
:1028D0002A03F4030102BC2A0000000000C52A00FC
:1028E00000000000D52A0000000000E52A000000DA
:1028F0000000E62A0000000000EF2A0000000000AF
:10290000FF2A00000000000F2B0000000000102B29
:102910000000000000192B0000000000292B00001F
:10292000000000392B00000000003A2B00000000DE
:1029300000432B0000000000532B00000000006348
:102940002B0000000000642B00000000006D2B0035
:10295000000000007D2B00000000008D2B00000017
:1029600000008E2B0000000000972B0000000000EC
:10297000A72B0000000000B72B0000000000B82BC0
:1029800003FD030010C12B0457040000D02B041FCB
:10299000040000E22B0448040000F42B0337040079
:1029A00000002C03470400000C2C03380400001521
:1029B0002C0331040010232C0342040010332C0399
:1029C00036040000442C043D040000542C033A0457
:1029D0000000632C02722C0000792C0343040000D9
:1029E000842C02732600008F2C027A2600009A2C79
:1029F0000281260000A52C029D260000B42C02AB0B
:102A0000260000BD2C02A4260000C62C02D02C00FB
:102A100000D72C026C260000DF2C02E92C0000F00D
:102A20002C02FE2C0000052D0C2D132D1A2D212D0E
:102A3000282D2F2D362D3D2D442D436F6E66696751
:102A400075726174696F6E0073746F72656420696A
:102A50006E20454550524F4D00436F6E6669677555
:102A6000726174696F6E006C6F6164656420662EBC
:102A700020454550524F4D004261636B200100508C
:102A800072696E742066696C6500506175736520AB
:102A90005072696E740053746F70205072696E7456
:102AA00000436F6E74696E7565205072696E7400B4
:102AB00044656C6574652066696C6500583A2578D4
:102AC00030206D6D004D696E20656E6473746F709B
:102AD0003A257378004D617820656E6473746F7069
:102AE0003A2573580000593A257831206D6D004D14
:102AF000696E20656E6473746F703A257379004D4A
:102B0000617820656E6473746F703A2573590000A4
:102B10005A3A257832206D6D004D696E20656E64DD
:102B200073746F703A25737A004D617820656E6416
:102B300073746F703A25735A0000583A2578302024
:102B40006D6D004D696E20656E6473746F703A250B
:102B50007378004D617820656E6473746F703A25E8
:102B600073580000593A257831206D6D004D696E1B
:102B700020656E6473746F703A257379004D6178C7
:102B800020656E6473746F703A25735900005A3A69
:102B9000257832206D6D004D696E20656E6473740A
:102BA0006F703A25737A004D617820656E64737496
:102BB0006F703A25735A0000486F6D6520416C6C48
:102BC000005A20426162797374657070696E6700A3
:102BD0005370656564204D756C2E3A256F6D252503
:102BE0002500466C6F77204D756C2E203A256F6658
:102BF000252525005072656865617420504C4100A0
:102C0000507265686561742041425300436F6F6C78
:102C1000646F776E0053657420746F204F7269671C
:102C2000696E0044697361626C65207374657070CD
:102C300065720041545820706F776572206F6E2F57
:102C40006F66660054656D702E203020203A254551
:102C50003002430045787472756465722030204FED
:102C6000666600457874722E20706F736974696FA0
:102C70006E0003F00302004B2D536574204F726900
:102C800067696E005820506F736974696F6E0059E0
:102C900020506F736974696F6E005A20506F7369AA
:102CA00074696F6E00517569636B20536574746944
:102CB0006E677300506F736974696F6E0045787446
:102CC00072756465720046616E207370656564009C
:102CD00002000007004F2D534420436172640044FA
:102CE0006562756767696E670002000005005D2D0B
:102CF000436F6E66696775726174696F6E0002007A
:102D0000000700672D752D0000000000862D0000D3
:102D1000000000992D0000000000AC2D0000000014
:102D200000B42D0000000000BC2D0000000000C019
:102D30002D0000000000CE2D0000000000D22D006C
:102D400000000000E32D0000000000E92DF02DAC94
:102D500028F72DFE2D052E0C2E132E1A2EAC282111
:102D60002E282E2F2E362EAC283D2E442E4B2E52A2
:102D70002E592E602E0A202565302F254530B02093
:102D8000583A257830000A202D2D2D2D2D2F2D2D50
:102D90002DB020593A257831000B202D2D2D2D2DC9
:102DA0002F2D2D2DB0205A3A257832004D756C3AD2
:102DB000256F6D004275663A256F4200256F7300DE
:102DC0005072696E74696E672074696D650025556F
:102DD000740046696C616D656E74207072696E7402
:102DE000656400255566206D00672E000000000018
:102DF000702E00000000007F2E0452040000902E70
:102E0000031A0408009D2E031B040000AB2E031CB4
:102E1000040000B92E031D040000C72E031E040089
:102E200000D42E0332040000E02E0333040000EC33
:102E30002E0334040000F82E0335040000042F0292
:102E40000C2F0000132F02202F0000272F02302FFD
:102E50000000372F02402F0000472F030604000018
:102E6000572F0307040000453A257833206D6D0085
:102E70003120636C69636B203D2031206D6D00460D
:102E8000616E2073706565643A25467325252500BB
:102E90005475726E2046616E204F666600536574ED
:102EA0002046616E20323525252500536574204665
:102EB000616E203530252525005365742046616EEE
:102EC000203735252525005365742046616E204640
:102ED000756C6C004563686F2020203A25646F0094
:102EE000496E666F2020203A256469004572726F32
:102EF0007273203A256465004472792072756E3AC7
:102F00002564640047656E6572616C000200000410
:102F100000662F416363656C65726174696F6E0052
:102F200002000004006E2F466565647261746500DE
:102F30000200000300762F45787472756465720094
:102F400002000011007C2F53746F726520746F2093
:102F5000454550524F4D004C6F616420662E204510
:102F60004550524F4D00AC289E2FA52FAC2FAC28BA
:102F7000B32FBA2FC12FAC28C82FCF2FAC28D62FF4
:102F8000DD2FE42FEB2FF22FF92F003007300E301A
:102F900015301C3023302A30313038303F30463045
:102FA0000410040000533002643000006B300279DA
:102FB0003000008030040A0400008A30040D040050
:102FC000009330040E0400009F300416040000A794
:102FD000300413040000B0300429040000BD3004A4
:102FE0002C040000CA30042B040000D530042A044D
:102FF0000000DF30042E040000ED30044D0400001A
:103000000031044C04000011310446040000213159
:1030100004300400003231042D0400003E3104224B
:103020000400004B31042304000055310424040043
:10303000005F3104250400006D3104260400007B8C
:1030400031042F04000042617564726174653A2591
:103050006F63005374657070657220496E616374AC
:1030600069766500032004020087314D61782E20C7
:10307000496E6163746976650003580402008B3100
:103080005072696E743A25617A004D6F76653A2503
:10309000615A004A65726B2020203A25616A004D12
:1030A00061783A25667A00486F6D653A25665A0060
:1030B00053746570732F4D4D3A25536500537461F9
:1030C00072742046523A255866004D617820465267
:1030D0003A25584600416363656C3A2558410053D0
:1030E0007461622E54696D653A255877005761699D
:1030F0007420556E6974733A20255855206D6D0003
:10310000576169742054656D702E20255854024310
:1031100000416476616E6365206C696E3A25586C77
:1031200000416476616E636520717561643A25586B
:103130006100436F6E74726F6C3A25586800445496
:103140002F50494420503A25587000504944204996
:103150003A2558690050494420443A2558640044AF
:1031600072697665204D696E3A25586D0044726922
:103170007665204D61783A25584D00504944204DE0
:1031800061783A255844008F3196319D31A431AB96
:10319000310000000000BA310000000000C431001E
:1031A00000000000D33100000000004469732E20AD
:1031B00041667465723A256973005B735D20303D2A
:1031C0004F6666004469732E2041667465723A2525
:1031D0006970005B735D20303D4F66660000050737
:1031E00000FF06024803BA00FFFF08FF06FF0505BF
:1031F00005050000A8008800A805080806000008CA
:1032000008082848F8402003030306010440A040B2
:10321000050505060000F8F8F8F8F80505050600AC
:1032200000F8888888F805080806000020505050EB
:1032300070F8F8700705050900001CFE8282FE0583
:103240000808060000885020882050888806080852
:10325000060000489048FCFC78303006080806005C
:1032600000244824FCFC783030060505060000FCEC
:10327000FC783030060202060000FCFC060606065A
:10328000000048904890FCFC060606060000244812
:103290002448FCFC0707070700008244382838440C
:1032A00082070707070000101038EE381010FFFFE4
:1032B000FFFFFFFFFFFFFFFFFFFFFFFFFFFF00001C
:1032C0000005040001060605020080808080008061
:1032D000030303050103A0A0A00505050500005098
:1032E000F850F85005050505000070A0702870041E
:1032F000060605000080902040901004050505009A
:103300000040A040A050010303050203808080021A
:103310000606050100408080808040020606050107
:1033200000804040404080030505050100A040E0CA
:1033300040A00505050500002020F8202003030318
:103340000501FF604080040101050002F002020255
:10335000050100C0C00404040500011020408003E2
:10336000060605010040A0A0A0A040030606050136
:103370000040C0404040E004060605000060901098
:103380002040F0040606050000F010601090600474
:1033900006060500002060A0F020200406060500B7
:1033A00000F080E01090600406060500006080E0F8
:1033B000909060040606050000F0102020404004B4
:1033C0000606050000609060909060040606050007
:1033D00000609090701060020505050100C0C000FB
:1033E000C0C00306060500FF606000604080030562
:1033F000050501002040804020040303050001F082
:1034000000F003050505010080402040800306060A
:1034100005010040A02040004004060605000060B1
:1034200090B0B08060040606050000609090F090B7
:1034300090040606050000E090E09090E004060687
:10344000050000609080809060040606050000E0A2
:1034500090909090E0040606050000F080E08080E7
:10346000F0040606050000F080E080808004060677
:10347000050000609080B090700406060500009082
:1034800090F0909090030606050100E04040404017
:10349000E0040606050000101010109060040606F7
:1034A00005000090A0C0C0A09004060605000080A2
:1034B00080808080F004060605000090F0F0909077
:1034C0009004060605000090D0D0B0B09004060627
:1034D000050000609090909060040606050000E0F2
:1034E0009090E080800407070500FF60909090D0E6
:1034F0006010040606050000E09090E0A09004062D
:10350000060500006090402090600306060501005B
:10351000E040404040400406060500009090909036
:10352000906004060605000090909090606004068C
:1035300006050000909090F0F0900406060500004B
:10354000909060609090030606050100A0A0A04046
:103550004040040606050000F010204080F00306FD
:1035600006050100E080808080E00404040500017D
:1035700080402010030606050100E020202020E006
:1035800003020205010440A0040101050000F0024D
:10359000020205010480400404040500007090B09C
:1035A000500406060500008080E09090E0030404CB
:1035B00005000060808060040606050000101070A1
:1035C00090907004040405000060B0C0600406061A
:1035D000050000205040E040400405050500FF7054
:1035E000906080700406060500008080E090909056
:1035F0000306060501004000C04040E00307070540
:1036000001FF2000202020A04004060605000080C5
:1036100080A0C0A090030606050100C040404040C5
:10362000E0040404050000A0F090900404040500E8
:1036300000E0909090040404050000609090600405
:1036400005050500FFE09090E0800405050500FFFA
:103650007090907010040404050000E090808004D5
:10366000040405000070C030E004060605000040B8
:1036700040E0404030040404050000909090700346
:103680000404050100A0A0A040040404050000906B
:1036900090F0F004040405000090606090040505BB
:1036A0000500FF9090502040040404050000F02025
:1036B00040F00306060501002040C04040200106FE
:1036C00006050200808080808080030606050100D8
:1036D00080406040408004020205000450A0FFFFCB
:1036E000FFFFFFFFFFFFFFFFFFFFFFFFFFFFFFFFEA
:1036F000FFFFFFFFFFFFFFFFFFFFFFFFFFFFFF00D9
:10370000000005040001060605020080008080809C
:10371000800406060500FF2070A0A07020040505A7
:103720000500003040E040B0050505050000887048
:10373000507088030606050100A0A040E04040014B
:10374000050505020080800080800307070501FF52
:103750006080C0A06020C0030101050105A005072D
:10376000070500FF7088A8C8A88870030303050038
:103770000360A060050303050001489048040202AD
:10378000050001F010030101050102E0050707052E
:1037900000FF7088E8C8C88870040101050005F0C2
:1037A00003030305010340A04005060605000020B1
:1037B00020F82020F8020404050102C04080C00265
:1037C0000404050102C0C040C00202020501044019
:1037D000800405050500FF909090E0800406060532
:1037E000000070D0D0505050020202050102C0C04B
:1037F0000202020501FF408003040405010240C0EB
:1038000040E003030305000340A040050303050057
:10381000019048900407070500FF80808090307079
:10382000100407070500FF808080B01020300407D7
:10383000070500FFC0C040D0307010030606050128
:103840000040004080A04004060605000060909003
:10385000F09090040606050000609090F0909004AF
:103860000606050000609090F090900406060500A2
:1038700000609090F0909004060605000090609023
:10388000F09090040606050000606090F0909004AF
:10389000060605000070A0B0E0A0B0040707050010
:1038A000FF60908080906040040606050000F08074
:1038B000E08080F0040606050000F080E08080F0E3
:1038C000040606050000F080E08080F0040606058E
:1038D0000000F080E08080F0030606050100E04073
:1038E000404040E0030606050100E040404040E063
:1038F000030606050100E040404040E003060605DF
:103900000100E040404040E0040606050000E050B1
:10391000D05050E0040606050000B090D0B0B09042
:10392000040606050000609090909060040606056D
:103930000000609090909060040606050000609082
:103940009090906004060605000060909090906052
:103950000406060500009060909090600404040541
:1039600000009060609004060605000070B0B0D0C2
:10397000D0E0040606050000909090909060040648
:1039800006050000909090909060040606050000E7
:103990009090909090600406060500009000909032
:1039A0009060030606050100A0A0A0404040040668
:1039B0000605000080E090E0808004060605000017
:1039C0006090A09090A00406060500004020709032
:1039D000B05004060605000020407090B050040668
:1039E0000605000020507090B05004060605000047
:1039F00050A07090B0500406060500005000709072
:103A0000B05004060605000060607090B0500404D9
:103A10000405000070B0A0700305050501FF60807B
:103A2000806040040606050000402060B0C06004CD
:103A30000606050000204060B0C0600406060500D0
:103A40000040A060B0C060040606050000A0006051
:103A5000B0C0600306060501008040C04040E0039E
:103A600006060501004080C04040E003060605014F
:103A70000040A0C04040E0030606050100A000C0D1
:103A80004040E0040606050000403060909060046D
:103A9000060605000050A0E0909090040606050080
:103AA0000040206090906004060605000020406001
:103AB000909060040606050000600060909060042D
:103AC000060605000050A060909060040606050000
:103AD000005000609090600405050500006000F053
:103AE000006004040405000070B0D0E00406060580
:103AF00000004020909090700406060500002040D1
:103B00009090907004060605000060009090907000
:103B10000406060500005000909090700407070509
:103B200000FF204090905020400406060500FF80D2
:103B3000E09090E0800407070500FF50009090504F
:103B4000204000070A00FE07026903FB00FFFE0891
:103B5000FE07FE050707060000A80088008800A8E9
:103B60000508080600000808082848F84020030354
:103B70000306010440A040050505060000F8F8F81A
:103B8000F8F8050505060000F8888888F805080893
:103B90000600002050505070F8F870070505090025
:103BA000001CFE8282FE050808060000885020885E
:103BB00020508888060808060000489048FCFC78D9
:103BC0003030060808060000244824FCFC78303019
:103BD000060505060000FCFC7830300602020600EF
:103BE00000FCFC06060606000048904890FCFC0617
:103BF000060606000024482448FCFC0707070700C7
:103C00000082443828384482070707070000101054
:103C100038EE381010FFFFFFFFFFFFFFFFFFFFFF31
:103C2000FFFFFFFFFF0000000605FF010707060278
:103C30000080808080800080030303060104A0A030
:103C4000A00507070600005050F850F8505005072F
:103C5000070600002070A0702870200608080600E3
:103C60000044A44810204894880507070600004037
:103C7000A0A040A89068010303060204808080038E
:103C800007070601002040808080402003070706C8
:103C900001008040202020408005050506000188A5
:103CA00050F850880505050600012020F820200363
:103CB00003030601FF604080040101060103F002D6
:103CC00002020601FFC0C005070706000008081031
:103CD0002040808005070706000020508888885013
:103CE000200507070600002060A0202020F8050717
:103CF00007060000708808304080F80507070600B6
:103D000000F808103008887005070706000010301A
:103D10005090F81010050707060000F880B0C8089A
:103D20008870050707060000304080B0C88870051D
:103D30000707060000F80810102040400507070696
:103D4000000070888870888870050707060000707A
:103D5000889868081060020505060201C0C000C00E
:103D6000C00307070601FF40E040006040800407F1
:103D700007060100102040804020100503030600C4
:103D800002F800F8040707060100804020102040D8
:103D90008005070706000070881020200020050716
:103DA00007060000708898A8B08070050707060015
:103DB0000020508888F88888050707060000F0482A
:103DC00048704848F005070706000070888080802A
:103DD0008870050707060000F04848484848F00585
:103DE0000707060000F88080F08080F805070706C6
:103DF0000000F88080F080808005070706000070D2
:103E0000888080988870050707060000888888F8F1
:103E1000888888030707060100E04040404040E0F2
:103E200005070706000038101010109060050707FE
:103E30000600008890A0C0A0908805070706000033
:103E4000808080808080F80507070600008888D879
:103E5000A88888880507070600008888C8A8988869
:103E6000880507070600007088888888887005071D
:103E700007060000F08888F08080800508080600AA
:103E8000FF7088888888A87008050707060000F07A
:103E90008888F0A090880507070600007088807069
:103EA000088870050707060000F820202020202041
:103EB0000507070600008888888888887005070736
:103EC000060000888888505050200507070600002B
:103ED000888888A8A8D88805070706000088885021
:103EE0002050888805070706000088885020202079
:103EF00020050707060000F80810204080F8030797
:103F000007060100E08080808080E005070706004A
:103F10000080804020100808030707060100E02009
:103F200020202020E005030306000420508805011E
:103F3000010600FFF80202020602068040050505A0
:103F40000600007008788878050707060000808062
:103F5000B0C888C8B0050505060000708880887064
:103F60000507070600000808689888986805050591
:103F70000600007088F880700507070600003048CA
:103F800040F04040400507070600FE788888780822
:103F900088700507070600008080B0C888888803FD
:103FA00007070601004000C0404040E00409090640
:103FB00001FE1000301010109090600507070600F9
:103FC0000080808890E09088030707060100C040C9
:103FD00040404040E0050505060000D0A8A8A8889C
:103FE000050505060000B0C8888888050505060097
:103FF0000070888888700507070600FEB0C888C86A
:10400000B080800507070600FE6898889868080851
:10401000050505060000B0C880808005050506007E
:104020000070807008F00507070600004040F0406F
:104030004048300505050600008888889868050511
:1040400005060000888850502005050506000088F8
:1040500088A8A8500505050600008850205088054E
:1040600007070600FE888898680888700505050619
:104070000000F8102040F804070706010030402037
:10408000C0204030010707060200808080808080C9
:1040900080040707060100C02040304020C005030F
:1040A0000306000448A890FFFFFFFFFFFFFFFFFF8C
:1040B000FFFFFFFFFFFFFFFFFFFFFFFFFFFFFFFF10
:1040C000FFFFFFFFFFFFFFFFFF0107070602008062
:1040D0000080808080800507070600FF2078A0A070
:1040E000A07820050707060000304840E04048B0AF
:1040F0000505050600008870507088050808060050
:10410000FF88885020F82020200107070602008041
:104110008080008080800508080600FF7080E090A5
:1041200048380870030101060107A00507070600CB
:10413000007088A8C8A8887004060606010170905F
:10414000B05000F0060505060000244890482404FD
:104150000202060102F010FF050707060000708842
:10416000E8C8C88870050101060007F803030306C4
:10417000010440A0400506060600002020F820208B
:10418000F804050506010360902040F004050506CB
:104190000103E0106010E00202020602064080FF08
:1041A00005070706000078E8E868282828010101CB
:1041B000060203800202020602FE40800305050695
:1041C000010340C04040E0040606060101609090F3
:1041D0006000F00605050600009048244890060996
:1041E000090600FF40C04040E40C143C04060909E5
:1041F0000600FF40C04040E81404081C05090906F9
:1042000000FFC0204020C8182878080507070600CE
:10421000002000202040887005080806000040208B
:10422000708888F8888805080806000010207088C3
:1042300088F888880508080600002050708888F8EB
:10424000888805080806000048B0708888F88888C3
:104250000508080600005000708888F8888805085E
:10426000080600002050708888F88888060707062E
:1042700000003C50909CF0909C0509090600FE70DF
:10428000888080808870204005080806000040F87B
:104290008080F08080F805080806000010F8808013
:1042A000F08080F805080806000020F88080F08083
:1042B00080F805080806000050F88080F08080F83B
:1042C0000308080601008040E040404040E0030849
:1042D000080601002040E040404040E00308080696
:1042E000010040A0E040404040E003080806010013
:1042F000A000E040404040E0050707060000F0480D
:1043000048E84848F0050808060000285088C8A872
:1043100098888805080806000040207088888888EA
:1043200070050808060000102070888888887005CD
:1043300008080600002050708888888870050808E2
:1043400006000028507088888888700508080600D4
:104350000050007088888888700505050600008870
:1043600050205088050707060000709898A8C8C814
:104370007005080806000040208888888888700535
:1043800008080600001020888888888870050808BA
:1043900006000020500088888888700508080600FC
:1043A000005000888888888870050808060000107A
:1043B0002088885020202005070706000080F0880C
:1043C000F0808080050707060000708890A0908824
:1043D000B0050808060000402000700878887805BD
:1043E0000808060000102000700878887805080882
:1043F000060000205000700878887805080806003C
:1044000000285000700878887805070706000050DB
:104410000070087888780508080600002050207091
:104420000878887806050506000078147C907C05DD
:1044300007070600FE70888088702040050808067F
:1044400000004020007088F8807005080806000011
:104450001020007088F880700508080600002050C1
:10446000007088F88070050707060000500070880B
:10447000F88070030808060100804000C0404040FA
:10448000E0030808060100408000C0404040E0030F
:10449000080806010040A000C0404040E0030707B4
:1044A000060100A000C0404040E0050707060000EC
:1044B000C030708888887005080806000028500001
:1044C000B0C8888888050808060000402000708869
:1044D0008888700508080600001020007088888809
:1044E0007005080806000020500070888888700554
:1044F00008080600002850007088888870050707A3
:1045000006000050007088888870050505060001C7
:104510002000F800200505050600007898A8C8F0DE
:10452000050808060000402000888888986805086B
:10453000080600001020008888889868050808068A
:10454000000020500088888898680507070600004A
:10455000500088888898680509090600FE102088A0
:104560008898680888700508080600FE80F088882A
:1045700088F080800509090600FE50008888986848
:1045800008887000002100240027002A002D003038
:1045900000330001010000040107010A01000022AC
:1045A00000250028002B002E0031003400020100FD
:1045B00000050108010B010000200023002600294E
:1045C000002C002F00320000010000030106010949
:1045D0000105050505070508080808020202020A88
:1045E0000A08080404040401010101010101010396
:1045F00003030303030303040707070C0C0C0C0C51
:104600000C0C0C0202020206060606060606060B43
:104610000B0B0B0B0B0B0B010210202008081020BA
:10462000401020408002010201080402010102043E
:1046300008102040808040201008040201800402FD
:104640000180402010080402010804020101020454
:10465000081020408001020408102040800000095A
:104660000A02080B0C0D07060304010000000000FD
:10467000000000000000000000000000000000003A
:1046800000000000000000000011100F00000000FA
:10469000000000000000000000000000000000001A
:1046A00000000002494E46494E4954594E414ECDF4
:1046B000CCCC3D0AD7233C17B7D13877CC2B3295D9
:1046C00095E6241FB14F0A000020410000C84200B7
:1046D000401C4620BCBE4CCA1B0E5AAEC59D740081
:1046E0000D9486140D94850F6D71AFBBA5E4112454
:1046F0001FBECFEFD1E2DEBFCDBF00E00CBF13E0A5
:10470000A0E0B2E0E6E4FAE302E00BBF02C00790EB
:104710000D92AA31B107D9F71BBE1DE1AAE1B3E0A2
:1047200001C01D92AF33B107E1F716E4CEEED6E437
:1047300004C02297FE010F94D31CC83ED107C9F7CD
:104740000F94F7130D94211D0C940000A0E0B0E02D
:10475000ECEAF3E20D94F01CEC015B0161157105CC
:1047600019F0FB0191838083F9908F2D90E00F94D5
:10477000D71C892BC9F7FDE2FF1621F4F990EE242E
:10478000E39405C02BE2F21609F4F990EE248E01B1
:1047900001501040C80164EA76E443E050E00E9412
:1047A0003526892B01F58E010E5F1F4FC80167EA80
:1047B00076E445E050E00E943526892B19F48E01FD
:1047C000095F1F4FA114B10419F0F5011183008393
:1047D000E0FC04C070E090E080E814C070E090E07D
:1047E00080E86FEF08C1C8016CEA76E443E050E06E
:1047F0000E943526892B69F4A114B10429F470E0D4
:1048000090E080EC6FE7F7C02296F501D183C0837A
:10481000F6CF8824992440E050E060E070E0EF2D6E
:10482000E053EA30A0F5F2E0EF2A8E2D90E09C01F3
:1048300028703070E2FE06C0232B79F50894811CA5
:10484000911C2BC0232B19F0089481089108DB01DF
:10485000CA0112E0880F991FAA1FBB1F1A95D1F732
:10486000480F591F6A1F7B1F440F551F661F771F74
:104870004E0F511D611D711D483929E9520729E963
:10488000620729E1720748F084E0E82A06C0EE3F9B
:1048900031F4E3FC39C098E0E92AF990C0CFE53360
:1048A00011F0E53189F529912D3219F4E0E1EE2A74
:1048B00005C02B3219F081E090E003C0299182E01D
:1048C00090E0E22FE053EA3018F0C81BD90B1CC06F
:1048D00020E030E0FCE020383F075CF4C901880F9D
:1048E000991F880F991F280F391F220F331F2E0F72
:1048F000311DE991E053EA3068F3E4FE03C03095DE
:1049000021953F4F820E931ECE2CDD24E1FE07C081
:10491000A114B10421F02197F501D183C083CB010B
:10492000BA010F944F197B018C01F3E0CF22DD24F3
:1049300023E0C216D10421F417FB109517F9109546
:1049400057016801C801B70120E030E040E050E0C5
:104950000F94AF18882309F44AC097FE0DC023ECCA
:10496000E22E26E4F22E9094819491089394C0E272
:10497000D0E000E010E012C09BEDE92E96E4F92EA5
:10498000F6CFF7012591359145915491C601B501B6
:104990000F945F1B5B016C018C1A9D0A8C169D069F
:1049A00084F7D595C7950F5F1F4F0630110529F085
:1049B0008CEF9FEFE80EF91EF1CFC501D6017C0107
:1049C0008D018C2D880F8D2D881F8F3F51F0C601D2
:1049D000B50120E030E040E050E00F94AF188823AC
:1049E00031F482E290E090933E1D80933D1D7E2D38
:1049F0009F2D802F612F272F392F482F562FB90138
:104A0000CA01CDB7DEB7ECE00D940C1D2F923F929A
:104A10005F926F927F928F929F92AF92BF92CF924E
:104A2000DF92EF92FF920F931F93CF93DF938C014E
:104A30001B01EA016115710519F0FB019183808367
:104A4000209749F0CE010297839728F020E030E0CC
:104A500040E050E0F6C0F801A1908F018A2D90E06F
:104A60000F94D71C892BB9F7FDE2AF1631F4F8018A
:104A7000A1908F015524539407C0FBE2AF1619F49F
:104A8000F801A1908F015524209719F0C031D1056C
:104A9000C1F4F0E3AF1679F4F8018081883711F0A2
:104AA000883549F4F801A1800E5F1F4FF2E05F2ABC
:104AB000C0E1D0E006C0209721F480E3A816E9F415
:104AC00027C0C830D10531F1C930D10524F4C23036
:104AD000D10531F50CC0CA30D10589F0C031D105FE
:104AE000F9F4C12CD12CE12CB8E0FB2E28C0C12C4C
:104AF000D12CE12CA0E4FA2E22C0CAE0D0E0FCECDC
:104B0000CF2EFCECDF2EFCECEF2EFCE0FF2E17C0CE
:104B1000C8E0D0E0C12CD12CE12CE0E1FE2E0FC08A
:104B20009E01442737FD4095542F60E070E080E0FF
:104B300090E80F94881CC901DA016C017D0120E026
:104B400030E040E050E060E03E01882477FC809453
:104B5000982C70EDB72EBA0CE9E0EB1570F48A2DA5
:104B600081548A3118F499ECB92E06C08A2D8156E9
:104B70008A3150F589EAB82EBA0C8B2D90E08C174B
:104B80009D0714F56F3FE1F0C216D306E406F50663
:104B9000B0F0CA01B901A40193010F94351C9B0127
:104BA000AC012B0D311D411D511D2130F0E03F079F
:104BB000F0E04F07F0E85F0710F461E001C06FEF2D
:104BC000F801A1908F01C5CF2114310481F0662333
:104BD00031F001501040F1011183008308C051FEF3
:104BE0001AC002501040F1011183008314C067FF06
:104BF00012C050FC05C02FEF3FEF4FEF5FE704C03E
:104C000020E030E040E050E882E290E090933E1DEA
:104C100080933D1D16C050FE08C0509540953095BC
:104C200021953F4F4F4F5F4F0CC057FF0AC082E2A4
:104C300090E090933E1D80933D1D2FEF3FEF4FEF8F
:104C40005FE7B901CA01DF91CF911F910F91FF90EA
:104C5000EF90DF90CF90BF90AF909F908F907F901C
:104C60006F905F903F902F900895FB01DC014150C1
:104C7000504088F08D9181341CF08B350CF4805EAF
:104C8000659161341CF06B350CF4605E861B61111C
:104C900071F3990B0895881BFCCFFB01DC0102C066
:104CA00001900D9241505040D8F70895FB01DC016E
:104CB0000D900020E9F7119701900D920020E1F787
:104CC0000895FC018191861721F08823D9F799274F
:104CD00008953197CF010895FB01DC018D9101907A
:104CE00080190110D9F3990B0895FB01DC010190A3
:104CF0000D920020E1F70895FB01DC014150504086
:104D000048F001900D920020C9F701C01D9241505A
:104D10005040E0F70895FC0181E090E00190061614
:104D200009F4CF010020D1F701970895089560910B
:104D30001402709115028091160290911702681763
:104D4000790744F4709317026093160282E394E0AB
:104D50000E94E43F0895BC01893191051CF469E18A
:104D600070E005C0893C910514F068EC70E0709328
:104D7000D1176093D01780E894E00E94E43F089533
:104D8000EF92FF920F931F93CF93DF93EC01893142
:104D900091051CF4C9E1D0E006C081E0C53FD80709
:104DA00014F0C4EFD1E0BE01882777FD8095982FDD
:104DB0000F9451197B018C016091CE177091CF1720
:104DC000882777FD8095982F0F9451199B01AC018E
:104DD000C801B7010F94B6189B01AC016091CA17C6
:104DE0007091CB178091CC179091CD170F945F1BCA
:104DF0006093CA177093CB178093CC179093CD17FD
:104E0000D093CF17C093CE1781E794E0BE010E94E4
:104E1000E43FDF91CF911F910F91FF90EF900895A4
:104E20000E947B739C0180911402909115022817B7
:104E3000390724F4309315022093140208950E9438
:104E4000726F08952F923F924F925F926F927F926E
:104E50008F929F92AF92BF92CF92DF92EF92FF928A
:104E60000F931F93DF93CF93CDB7DEB728970FB67D
:104E7000F894DEBF0FBECDBFA090DD16B090DE1659
:104E8000C090DF16D090E0162090E1163090E21628
:104E90004090E3165090E4168091E5169091E61646
:104EA000A091E716B091E81689839A83AB83BC83FF
:104EB0002091051730910617409107175091081758
:104EC0006090091770900A1780900B1790900C173C
:104ED00080910D1790910E17A0910F17B091101798
:104EE0008D839E83AF83B88780918816882359F479
:104EF0000F2EF0E0EF2EF0E0FF2EF0E80F2FFFE393
:104F00001F2FF02D0AC00F2EF0E7EF2EF2E4FF2E38
:104F1000F1E20F2FFDE31F2FF02DC601B5010F9415
:104F2000D617A80197010F945F1BAB01BC018CE35E
:104F300094E022E00E942C4180918816882359F445
:104F40000F2EF0E0EF2EF0E0FF2EF0E80F2FFFE342
:104F50001F2FF02D0AC00F2EF0E7EF2EF2E4FF2EE8
:104F6000F1E20F2FFDE31F2FF02DC201B101A401CB
:104F700093010F94D617A80197010F945F1BAB0103
:104F8000BC0183E494E022E00E942C4180918816C9
:104F9000882359F40F2EF0E0EF2EF0E0FF2EF0E81A
:104FA0000F2FFFE31F2FF02D0AC00F2EF0E7EF2E7B
:104FB000F2E4FF2EF1E20F2FFDE31F2FF02D6981A8
:104FC0007A818B819C812D813E814F8158850F9400
:104FD000D617A80197010F945F1BAB01BC0187E4B2
:104FE00094E022E00E942C412091D9163091DA16EB
:104FF0004091DB165091DC16A0909516B090961655
:10500000C0909716D090981680918816882359F4EE
:105010000F2EF0E0EF2EF0E0FF2EF0E80F2FFFE371
:105020001F2FF02D0AC00F2EF0E7EF2EF2E4FF2E17
:10503000F1E20F2FFDE31F2FF02DCA01B9010F94EC
:105040005119A60195010F945F1BA80197010F94B8
:105050005F1BAB01BC018BE494E022E00E9468413D
:1050600028960FB6F894DEBF0FBECDBFCF91DF916B
:105070001F910F91FF90EF90DF90CF90BF90AF9076
:105080009F908F907F906F905F904F903F902F9068
:1050900008950F931F9301ED14E0C8016DE00E9485
:1050A0003C71C8016AE00E943C711F910F91089504
:1050B000E0912303F091240346A957A960AD71AD97
:1050C0008FE494E022E00E942C41E0912303F091D0
:1050D000240342AD53AD64AD75AD8EE694E020E09F
:1050E0000E942C41E0911A02EF3F29F4E091230342
:1050F000F0912403E081F0E0E550FB4F608186E50C
:1051000094E070E00E941C400E94492808956F922C
:105110007F928F929F92AF92BF92CF92DF92EF9247
:10512000FF920F931F93DF93CF9300D00F92CDB7D1
:10513000DEB74091E4175091E5176091E617709142
:10514000E717FE01319621E830E0F999FECF32BD34
:1051500021BDF89A80B581932F5F3F4F25383105E7
:10516000A1F7CB01BA012FE632E143E85AE30F94ED
:105170005F1B29813A814B815C810F94D617AB016B
:10518000BC0188E994E022E00E942C4189EB94E084
:105190000E94AE3FE0919102F09192026385748586
:1051A0008585968520E030E040E751E40F94BD1AF4
:1051B00018160CF496C0AA24BB246501F999FECFF9
:1051C0008DE790E092BD81BDF89A50B5F999FECF78
:1051D0008EE790E092BD81BDF89A40B5F999FECF77
:1051E0008FE790E092BD81BDF89A30B5F999FECF76
:1051F00080E890E092BD81BDF89A20B5852F942F6C
:10520000A32FB22FA80EB91ECA1EDB1EC601B50100
:1052100020E831E541E050E00F94AA1C922E832E45
:10522000742E652E622F732F842F952F20E83EEA6F
:105230004EEF5FEF0F94351C7B018C01EA0CFB1CD9
:105240000C1D1D1D8AEA94E0492D582D672D762DE1
:105250000E940B40C801B70120E13EE040E050E071
:105260000F94AA1CD22EC32EB42EA52E8CEB94E044
:10527000422F5C2D6B2D7A2D0E940B406D2D7C2DC5
:105280008B2D9A2D20EF31EF4FEF5FEF0F94351CF0
:10529000E60EF71E081F191FC801B7012CE330E006
:1052A00040E050E00F94AA1C83EC94E0BA01A901FD
:1052B0000E940B408BEC94E00E9448400F900F90AE
:1052C0000F900F90CF91DF911F910F91FF90EF9072
:1052D000DF90CF90BF90AF909F908F907F906F9016
:1052E00008950F941A102091E0173091E117409122
:1052F000E2175091E317621B730B840B950B28EE9A
:1053000033E040E050E00F94881CC901DA015C01F1
:105310006D0154CF80911C038823C1F010921C03AF
:105320000E94706380911902815080931902882332
:1053300049F480911802833010F40E94655D85E085
:10534000809319028AEE9AE10F94440D089508C0E3
:105350000E94276C0E948A298AEE9AE10E94A4E4A6
:10536000809174168823A1F70895CF93DF9397FD5A
:1053700010C0EC018F3F910521F01CF0CFEFD0E081
:1053800002C0009731F08091131788608093131743
:1053900007C080911317877F80931317C0E0D0E078
:1053A000662311F00E94A7298091FE0490E0C8179F
:1053B000D90729F08EE894E0BE010E94E43FC09333
:1053C000FE04DF91CF9108952F923F924F925F920A
:1053D0006F927F928F929F92AF92BF92CF92DF9205
:1053E000EF92FF920F931F93DF93CF93CDB7DEB76A
:1053F000CC56D0400FB6F894DEBF0FBECDBF4C01E7
:105400008091F202282F84FF19C0D4018C9182FD73
:1054100009C081FF13C016968D919C9117978F3606
:10542000910561F00F941A106093EF047093F004EB
:105430008093F1049093F2040C94AB3EF40100814C
:10544000118102FD02C00C945A35808591858D3101
:10545000910509F4B3C28E319105E0F484309105D1
:1054600020F4029708F06EC04BC08431910509F416
:105470005BC28531910528F4049711F00C944E35E8
:1054800014C28531910509F454C24C9711F00C9463
:105490004E3553C28B35910511F40C9432328C3554
:1054A000910598F48F31910509F4A5C48F319105C8
:1054B00008F476C48032910509F4ADC48A359105AB
:1054C00011F00C944E350C942F328338910511F461
:1054D0000C94F0328438910538F48C35910511F034
:1054E0000C944E350C9436328438910511F40C949A
:1054F00058338538910511F00C944E350C94903446
:1055000012FF12C0F401878D90A1A1A1B2A1209138
:1055100012170097A105B10519F0822F806202C011
:10552000822F8F7D80931217C4010E94A2AB882323
:1055300011F40C944E3581E061E041E00E947592D7
:105540000C944E358091DD169091DE16A091DF16F9
:10555000B091E0168D879E87AF87B88B8091E1165A
:105560009091E216A091E316B091E416898B9A8B84
:10557000AB8BBC8B8091E5169091E616A091E71657
:10558000B091E8168D8B9E8BAF8BB88FC4010E94B3
:10559000A2AB882311F40C944E35FE01359688E0B9
:1055A000DF011D928A95E9F7F401828180FD05C033
:1055B00020E030E040E050E007C0D40197962D9104
:1055C0003D914D915C919A9780918816882351F076
:1055D000CA01B90123E333E34BEC51E40F945F1BA1
:1055E0009B01AC012D833E834F835887F401828158
:1055F00081FD05C020E030E040E050E007C0D4016C
:105600009B962D913D914D915C919E97809188162E
:10561000882351F0CA01B90123E333E34BEC51E491
:105620000F945F1B9B01AC0129873A874B875C87EE
:10563000FE01799680E1DF011D928A95E9F780915C
:10564000DD169091DE16A091DF16B091E016898FDD
:105650009A8FAB8FBC8F8091E1169091E216A0914A
:10566000E316B091E4168D8F9E8FAF8FB8A3809113
:10567000E5169091E616A091E716B091E81689A379
:105680009AA3ABA3BCA360910117709102178091FC
:105690000317909104170F9451192091951630918A
:1056A000961640919716509198160F945F1B6DA314
:1056B0007EA38FA398A7F401828182FFD2C0A7A402
:1056C000B0A8C1A8D2A880918816882351F0C6013D
:1056D000B50123E333E34BEC51E40F945F1B5B0113
:1056E0006C01698D7A8D8B8D9C8D2D853E854F85C6
:1056F00058890F94D51729966CAF7DAF8EAF9FAFA9
:1057000029976D8D7E8D8F8D98A129893A894B8936
:105710005C890F94D5172B013C01C601B50120E02F
:1057200030E040E850E40F945F1BA60195010F9410
:105730005F1B7B018C0129966CAD7DAD8EAD9FAD5D
:1057400029979B01AC010F945F1B9B01AC01C80121
:10575000B7010F94D5177B018C01C301B201A301DE
:1057600092010F945F1B9B01AC01C801B7010F941C
:10577000D5170F94CC1B7B018C0129966CAD7DADA8
:105780008EAD9FAD2997A30192010F94CA1A9B0178
:10579000AC0117FB109517F91095C801B7010F94CC
:1057A000B6187B018C01A80197010F94191C88235E
:1057B00031F080ED94E00E944D400C944E35D401C0
:1057C00018968D919C911997039721F417FB1095CA
:1057D00017F91095C601B50120E030E040E050E037
:1057E0000F94AF18882344F417FB109517F9109500
:1057F000D7FAD094D7F8D094C301B201A801970189
:105800000F945F1B9B01AC0129966CAD7DAD8EADF5
:105810009FAD29970F94D51720E030E040E05FE37B
:105820000F945F1B6D837E838F83988729966CAD61
:105830007DAD8EAD9FAD2997A80197010F945F1B99
:105840009B01AC01C301B2010F94D61720E030E0F8
:1058500040E05FE30F945F1B69877A878B879C87A3
:105860000CC06D817E818F81988529853A854B8515
:105870005C850F94CA1A5B016C01E0E0D4011896B4
:105880008D919C911997029709F4E1E0CE010D9654
:10589000BE01675E7F4FAE014B5F5F4F9601850192
:1058A000EE2E0E94CD7E0C944E350E94A729F40165
:1058B0008081918193FD04C0EE24FF24870107C0FD
:1058C000D4019396ED90FD900D911C91969792FFC7
:1058D0000DC0F401678D70A181A192A128EE33E083
:1058E00040E050E00F94351C7B018C010F941A109E
:1058F0005B016C01AE0CBF1CC01ED11E04C00E9417
:10590000276C0E948A290F941A1025013601461A25
:10591000570A680A790AD301C20180509449A54305
:10592000B74768F30C944E3581E0809388160C9449
:105930004E35109288160C944E35C80188739070BD
:10594000892B11F080E008C0C801A6E096958795E4
:10595000AA95E1F78095817006FF08C01092D916CC
:105960001092DA161092DB161092DC16882321F0C2
:1059700041E051E061E01EC0D4012D913C91C9018C
:1059800088739070892B09F48FC6C901F3E096954E
:105990008795FA95E1F7582F5170C901E4E0969583
:1059A0008795EA95E1F7682F617025FD02C040E018
:1059B00001C041E0852F0E9436B276C68EE299E0A2
:1059C0000E94B86A3090111780E00E94C0A24090F7
:1059D000CA175090CB176090CC177090CD172196B6
:1059E0004CAE5DAE6EAE7FAE2197FE01319620E3E8
:1059F00033E0F999FECF32BD21BDF89A80B581938D
:105A00002F5F3F4F43E02433340799F7E980FA8052
:105A10000B811C81FE01319624E333E0F999FECF1E
:105A200032BD21BDF89A80B581932F5F3F4F53E07F
:105A30002833350799F729813A814B815C81DE0152
:105A40001196E8E4F3E0F999FECFF2BDE1BDF89AD2
:105A500080B58D93319683E0EC34F807A1F700D040
:105A60000F9289819A81AB81BC81EDB7FEB78183AA
:105A70009283A383B483C801B7010F2EF0E8EF2E01
:105A8000FFE4FF2EF3EC0F2FF7E41F2FF02D57014B
:105A900068010E94BDA70F900F900F900F9081E0BA
:105AA00060E041E020E00E94E3A225966CAF7DAF6C
:105AB0008EAF9FAF259720E030E040E050E00F949C
:105AC000AF1887FF02C00C944E35FE01319628E3D3
:105AD00033E0F999FECF32BD21BDF89A80B58193AC
